:100000000C9462000C948A000C948A000C948A0070
:100010000C948A000C948A000C948A000C948A0038
:100020000C948A000C948A000C948A000C94890524
:100030000C948A000C948A000C948A000C948A0018
:100040000C94E7040C948A000C9457050C94310529
:100050000C948A000C948A000C948A000C948A00F8
:100060000C948A000C948A000000000024002700F1
:100070002A0000000000250028002B0000000008D6
:10008000000201000003040700000000000000005F
:1000900000000000230026002900040404040404D6
:1000A0000404020202020202030303030303010227
:1000B00004081020408001020408102001020408F6
:1000C00010208F0611241FBECFEFD8E0DEBFCDBFBA
:1000D00011E0A0E0B1E0ECE0F5E102C005900D9286
:1000E000A232B107D9F722E0A2E2B1E001C01D922D
:1000F000A130B207E1F710E0C2E6D0E004C02197DA
:10010000FE010E94790AC136D107C9F70E94ED06A7
:100110000C94840A0C940000CF92DF92EF92FF922D
:10012000DC01A03282E0B8070CF03EC0B7FD06C08B
:10013000A53BB1052CF0A4EBB0E002C0A0E0B0E01C
:100140008091FF0128E830E06901C81AD10887FDD5
:10015000D394CC0CDD1CCC0CDD1C0D2C000CEE085B
:10016000FF088091000228E532E0281B310987FD55
:100170003395220F331F220F331FA901330F660B54
:10018000770B9A01AB012C193D094E095F090E94BA
:10019000FE0824EB30E040E050E00E94D408C20E9C
:1001A000D31EE41EF51ED6019091FE019C3098F5F9
:1001B0008091FF0148E850E0481B510987FD5395A5
:1001C000440F551F440F551FA417B5078CF080919D
:1001D000000228E532E0281B310987FD3395220F04
:1001E000331F220F331FAD012A173B070CF4A9015F
:1001F00042505109440F551F2FB7F894892F90E0B2
:10020000FC01EE0FFF1F8E0F9F1FFC01E752FE4FF8
:10021000528341832FBFFF90EF90DF90CF900895DE
:1002200090E0FC01E458FF4F2491FC01E255FF4FA0
:100230003491FC01E656FF4FE491EE2309F43CC0F3
:10024000222339F1233091F038F42130A9F0223003
:1002500001F584B58F7D12C0273091F02830A1F0D0
:100260002430B9F4809180008F7D03C0809180009C
:100270008F77809380000DC084B58F7784BD09C0CF
:100280008091B0008F7703C08091B0008F7D809304
:10029000B000F0E0EE0FFF1FEE58FF4FA591B491B4
:1002A0009FB7F894611104C08C913095382302C037
:1002B000EC913E2B3C939FBF0895CF93DF9390E04A
:1002C000FC01E255FF4F2491FC01E656FF4F84915B
:1002D000882361F190E0880F991FFC01E859FF4FD6
:1002E000C591D491FC01EE58FF4FA591B4916111D5
:1002F00009C09FB7F8948881209582238883EC9168
:100300002E230BC0623061F49FB7F8948881322F9E
:10031000309583238883EC912E2B2C939FBF06C0AE
:100320008FB7F894E8812E2B28838FBFDF91CF9170
:1003300008951F93CF93DF93182FEB0161E00E9484
:100340005D01209711F460E004C0CF3FD10539F47E
:1003500061E0812FDF91CF911F910C941001E12F6B
:10036000F0E0E458FF4FE491E330F9F048F4E13075
:10037000B9F0E230A1F584B5806284BDC8BD34C057
:10038000E730E9F0E83019F1E43049F58091800078
:10039000806280938000D0938B00C0938A0024C039
:1003A00084B5806884BDC7BD1FC08091800080680F
:1003B00080938000D0938900C093880015C08091FD
:1003C000B00080688093B000C093B3000DC08091EE
:1003D000B00080628093B000C093B40005C0C03804
:1003E000D1050CF0B5CFAFCFDF91CF911F9108951C
:1003F0003FB7F8948091380190913901A0913A016A
:10040000B0913B0126B5A89B05C02F3F19F001967E
:10041000A11DB11D3FBFBA2FA92F982F8827820F8A
:10042000911DA11DB11DBC01CD0142E0660F771FDA
:10043000881F991F4A95D1F708958F929F92AF9286
:10044000BF92CF92DF92EF92FF926B017C010E94EC
:10045000F8014B015C01C114D104E104F104F1F095
:100460000E94F801DC01CB0188199909AA09BB098E
:10047000883E9340A105B10570F321E0C21AD1086E
:10048000E108F10888EE880E83E0981EA11CB11CDB
:10049000C114D104E104F10419F7DDCFFF90EF900E
:1004A000DF90CF90BF90AF909F908F900895CF92A4
:1004B000DF92EF92FF920F931F93CF93DF936C0124
:1004C0007A018B01C0E0D0E0CE15DF0581F0D801C4
:1004D0006D918D01D601ED91FC910190F081E02D9F
:1004E000C6010995892B11F02196EECF7E01C70137
:1004F000DF91CF911F910F91FF90EF90DF90CF9000
:100500000895089580E090E00895FC01538D448D96
:10051000252F30E0842F90E0821B930B541710F0AE
:10052000CF96089501970895FC01918D828D9817BB
:1005300061F0828DDF01A80FB11D5D968C91928DC7
:100540009F5F9F73928F90E008958FEF9FEF0895C4
:10055000FC01918D828D981731F0828DE80FF11D8D
:10056000858D90E008958FEF9FEF0895FC01918DA8
:10057000228D892F90E0805C9F4F821B91098F73A1
:10058000992708958CE391E00E94B60221E0892B1F
:1005900009F420E0822F0895FC01848DDF01A80F6B
:1005A000B11DA35ABF4F2C91848D90E001968F739B
:1005B0009927848FA689B7892C93A089B1898C91BA
:1005C000837080648C93938D848D981306C0028809
:1005D000F389E02D80818F7D80830895EF92FF92D3
:1005E0000F931F93CF93DF93EC0181E0888F9B8D56
:1005F0008C8D981305C0E889F989808185FD26C016
:10060000F62E0B8D10E00F5F1F4F0F731127E02E9A
:100610008C8DE8120CC00FB607FCFACFE889F98977
:10062000808185FFF5CFCE010E94CC02F1CF8B8D6A
:10063000FE01E80FF11DE35AFF4FF0829FB7F894D7
:100640000B8FEA89FB89808180620AC09FB7F8948A
:10065000EE89FF896083E889F989808183708064ED
:1006600080839FBF81E090E0DF91CF911F910F9138
:10067000FF90EF900895CF93DF93EC01888D88234E
:10068000C9F0EA89FB89808185FD05C0A889B989FF
:100690008C9186FD0FC00FB607FCF5CF808185FFDA
:1006A000F2CFA889B9898C9185FFEDCFCE010E9448
:1006B000CC02E7CFDF91CF91089580E090E0892BC5
:1006C00029F00E94C20281110C9400000895009745
:1006D00069F0FC0101900020E9F73197AF01481B58
:1006E000590BBC018CE391E00C94570280E090E040
:1006F00008958F929F92AF92BF920F931F93CF93C3
:10070000DF93CDB7DEB7A1970FB6F894DEBF0FBE6B
:10071000CDBF19A2423008F44AE08E010F5D1F4F91
:10072000842E912CA12CB12CA50194010E940609C4
:10073000E62FB901CA0101501109EA3014F4E05D55
:1007400001C0E95CD801EC93232B242B252B61F706
:10075000C8010E946703A1960FB6F894DEBF0FBED2
:10076000CDBFDF91CF911F910F91BF90AF909F9020
:100770008F900895CF92DF92EF92FF92CF93DF9305
:100780006B017C016DE28CE391E00E94EE02EC01D2
:1007900066277727CB016C197D098E099F094AE0EE
:1007A0000E9479038C0F9D1FDF91CF91FF90EF90F6
:1007B000DF90CF900895CF92DF92EF92FF92CF9388
:1007C000DF9380912B0190912C018937910524F5BD
:1007D00028E730E0A901481B590B509329014093A9
:1007E000280184E191E00E9467038FE191E00E947B
:1007F000670360E083E00E94100166E470E085E03A
:100800000E94990166E470E086E00E94990160E030
:100810008BE00E9410011AC088579109909329011A
:100820008093280166E470E083E00E94990160E013
:1008300070E085E00E94990160E070E086E00E942F
:10084000990166E470E08BE00E9499011092270103
:1008500010922601C0912601D09127018091280194
:1008600090912901C817D90764F465E070E080E031
:1008700090E00E941D022196D0932701C09326018B
:10088000E9CFC0900001D09001015AE0C516D10413
:100890008CF460E083E00E94100160E085E00E943B
:1008A000100160E086E00E94100160E08BE00E9491
:1008B000100134C066E470E083E00E94990160E0BA
:1008C00070E085E00E94990166E470E086E00E9495
:1008D000990160E070E08BE00E9499018AE0C81AFB
:1008E000D108D0922501C0922401109223011092C8
:1008F00022010D2C000CEE08FF08C0912201D091BE
:100900002301C333D10554F4C701B6010E941D026F
:100910002196D0932301C0932201EFCF60E083E0C2
:100920000E94100160E085E00E94100160E086E016
:100930000E94100160E08BE0DF91CF91FF90EF907B
:10094000DF90CF900C941001CF93DF9397FF03C0FB
:100950000E94BA0303C04AE00E947903EC018FE1D0
:1009600091E00E9467038C0F9D1FDF91CF91089546
:100970000F931F9390E0FC01E255FF4F6491FC013F
:10098000E656FF4FE491F0E0EE0FFF1FE057FF4FF8
:100990008591949100E412E42FE030E0462F0E940C
:1009A0004A06611571058105910549F0DC01CB010D
:1009B0000196A11DB11DBC01CD019F7003C060E077
:1009C00070E0CB011F910F9108950E947F0A1F9242
:1009D0000F920FB60F9211242F933F938F939F93F3
:1009E000AF93BF938091340190913501A09136016E
:1009F000B09137013091330123E0230F2D3720F4DC
:100A00000196A11DB11D05C026E8230F0296A11D68
:100A1000B11D209333018093340190933501A0934D
:100A20003601B09337018091380190913901A0913E
:100A30003A01B0913B010196A11DB11D809338018F
:100A400090933901A0933A01B0933B01BF91AF91CC
:100A50009F918F913F912F910F900FBE0F901F90FC
:100A600018951F920F920FB60F9211242F933F9358
:100A70004F935F936F937F938F939F93AF93BF93A6
:100A8000EF93FF938CE391E00E94CC02FF91EF91F2
:100A9000BF91AF919F918F917F916F915F914F9196
:100AA0003F912F910F900FBE0F901F9018951F929E
:100AB0000F920FB60F9211242F938F939F93EF9362
:100AC000FF93E0914C01F0914D018081E091520142
:100AD000F091530182FD12C09081809155018F5F8A
:100AE0008F7320915601821751F0E0915501F0E08B
:100AF000E45CFE4F958F8093550101C08081FF918A
:100B0000EF919F918F912F910F900FBE0F901F909B
:100B100018951F920F920FB60F9211242F933F93A7
:100B20004F935F936F937F938F939F93AF93BF93F5
:100B3000EF93FF9380912A0187FF05C010928500F3
:100B4000109284001BC020912A01022E000C330B4E
:100B50008091FD0190E02817390784F480912A01E3
:100B6000082E000C990BFC01EE0FFF1F8E0F9F1F2C
:100B7000FC01E752FE4F808186FD15C080912A015D
:100B80008F5F80932A0120912A01022E000C330BE3
:100B90008091FD0190E028173907C4F480912A0163
:100BA0008C3064F113C080912A01082E000C990B3F
:100BB000FC01EE0FFF1F8E0F9F1FFC01E752FE4F3F
:100BC000808160E08F730E941001D8CF80918400F3
:100BD00090918500049680349C4918F480E49CE947
:100BE00005C08091840090918500049690938900BF
:100BF000809388008FEF80932A013BC0209184006E
:100C00003091850080912A01082E000C990BFC017F
:100C1000EE0FFF1F8E0F9F1FFC01E752FE4F8181D9
:100C20009281820F931F9093890080938800809116
:100C30002A01082E000C990BFC01EE0FFF1F8E0FEE
:100C40009F1FFC01E752FE4F808186FF12C08091FA
:100C50002A01082E000C990BFC01EE0FFF1F8E0FCE
:100C60009F1FFC01E752FE4F808161E08F730E945D
:100C70001001FF91EF91BF91AF919F918F917F9163
:100C80006F915F914F913F912F910F900FBE0F90F9
:100C90001F901895CF92DF92EF92FF920F931F93C0
:100CA000E82FF92F05C0015011092109310961F11F
:100CB000908196239417B9F305C0015011092109B9
:100CC000310911F1908196239413F7CFC12CD12CC7
:100CD000E12CF12C0AC08FEFC81AD80AE80AF80AEA
:100CE0000C151D052E053F0579F08081862384179C
:100CF00091F36C2D7D2D8E2D9F2D1F910F91FF90C7
:100D0000EF90DF90CF90089560E070E080E090E099
:100D10001F910F91FF90EF90DF90CF900895109268
:100D20003F0110923E0188EE93E0A0E0B0E0809396
:100D3000400190934101A0934201B093430186E0AA
:100D400091E090933D0180933C0185EC90E090937D
:100D500049018093480184EC90E090934B0180938B
:100D60004A0180EC90E090934D0180934C0181EC1E
:100D700090E090934F0180934E0182EC90E090932D
:100D800051018093500186EC90E090935301809341
:100D90005201109255011092560110925701109273
:100DA00058018091FD018C30A0F491E0980F909350
:100DB000FD018093FE0190E0FC01EE0FFF1F8E0FFE
:100DC0009F1FFC01E752FE4F88EB9BE092838183DB
:100DD00008958FEF8093FE010895789484B5826022
:100DE00084BD84B5816084BD85B5826085BD85B5CF
:100DF000816085BD80916E00816080936E0010924D
:100E000081008091810082608093810080918100C7
:100E10008160809381008091800081608093800058
:100E20008091B10084608093B1008091B0008160B6
:100E30008093B00080917A00846080937A008091E2
:100E40007A00826080937A0080917A00816080933A
:100E50007A0080917A00806880937A001092C100B5
:100E60008091FE018C3008F051C061E089E00E9461
:100E70005D018091FE01E82FF0E09F01220F331FFA
:100E8000E20FF31FE752FE4F9081907C99609083B0
:100E90001092FF01109200026CE00E946D0A9CE02B
:100EA000899FB001112440E050E09B01240F351FC1
:100EB000F901EE0FFF1F2E0F3F1FF901E752FE4F02
:100EC000908196FD16C04F5F5F4F4C30510569F71A
:100ED00081110FC01092800082E0809381001092F7
:100EE000850010928400B19A80916F008260809397
:100EF0006F00E091FE01F0E0CF01880F991FE80F2D
:100F0000F91FE752FE4F80818064808361E083E0B7
:100F10000E945D0161E085E00E945D0161E086E084
:100F20000E945D0161E08BE00E945D01E0914C0157
:100F3000F0914D0182E08083E0914801F0914901F8
:100F40001082E0914A01F0914B018FEC8083109266
:100F50005401E0915001F091510186E08083E091CD
:100F60004E01F0914F01808180618083E0914E01BC
:100F7000F0914F01808188608083E0914E01F09173
:100F80004F01808180688083E0914E01F0914F0194
:100F900080818F7D808361E088E00E945D0160E058
:100FA0008AE00E945D0108E210E082E0882E912C28
:100FB000A12CB12CC8EED3E094EBE92EF12C80915A
:100FC0003101909132010E948C0010933201009304
:100FD00031018091310190913201853B91050CF0F6
:100FE0004EC00E948C0061E088E00E94100160E029
:100FF00088E00E9410018AE00E94B804A5019401D3
:101000000E94D408CA01B9010E94E1092DEC3CEC10
:1010100048EE51E40E9437090E94A90960932D010E
:1010200070932E0180932F01909330010E94A404AD
:1010300040902D0150902E0160902F017090300152
:101040004091000150910101052E000C660B770BB9
:10105000809131019091320144165506660677065B
:1010600044F4509201014092000190932C0180932E
:101070002B0101969093320180933101AACF64E64F
:1010800070E080E090E00E941D028091000190914C
:101090000101C29714F40E94DB03D0930101C093B5
:1010A0000001F0923201E092310180913101909182
:1010B0003201883291050CF44EC00E948C0061E030
:1010C00088E00E94100160E088E00E9410018AE040
:1010D0000E94B804A50194010E94D408CA01B90174
:1010E0000E94E1092DEC3CEC48EE51E40E943709E6
:1010F0000E94A90960932D0170932E0180932F0106
:10110000909330010E94A40440902D0150902E0134
:1011100060902F01709030014091000150910101C9
:10112000052E000C660B770B8091310190913201F6
:10113000441655066606770644F450920101409223
:10114000000190932C0180932B0101979093320121
:1011500080933101AACF64E670E080E090E00E94C5
:101160001D0260912B0170912C01072E000C880B41
:10117000990B97FF03C00E94BA0303C04AE00E9484
:1011800079038FE191E00E946703809100019091C3
:101190000101C29714F40E94DB03D0930101C093B4
:1011A00000010E945D030BCF052E97FB1EF40094F7
:1011B0000E94EB0857FD07D00E94060907FC03D0E8
:1011C0004EF40C94EB0850954095309521953F4F87
:1011D0004F4F5F4F089590958095709561957F4F23
:1011E0008F4F9F4F08950E942809A59F900DB49F8F
:1011F000900DA49F800D911D11240895B7FF0C94AC
:10120000F3080E94F308821B930B0895A1E21A2EA3
:10121000AA1BBB1BFD010DC0AA1FBB1FEE1FFF1F9A
:10122000A217B307E407F50720F0A21BB30BE40BEA
:10123000F50B661F771F881F991F1A9469F7609531
:101240007095809590959B01AC01BD01CF010895EB
:10125000A29FB001B39FC001A39F700D811D1124F7
:10126000911DB29F700D811D1124911D08950E9442
:101270004B090C94330A0E942C0A58F00E94250A4C
:1012800040F029F45F3F29F00C941C0A51110C9492
:10129000670A0C94220A0E94440A68F39923B1F366
:1012A000552391F3951B550BBB27AA27621773078C
:1012B000840738F09F5F5F4F220F331F441FAA1F20
:1012C000A9F335D00E2E3AF0E0E832D091505040DC
:1012D000E695001CCAF72BD0FE2F29D0660F771F8A
:1012E000881FBB1F261737074807AB07B0E809F070
:1012F000BB0B802DBF01FF2793585F4F3AF09E3FF5
:10130000510578F00C941C0A0C94670A5F3FE4F3D3
:10131000983ED4F3869577956795B795F7959F5F37
:10132000C9F7880F911D9695879597F90895E1E083
:10133000660F771F881FBB1F621773078407BA07E2
:1013400020F0621B730B840BBA0BEE1F88F7E0953D
:1013500008950E94B0096894B1110C94670A089529
:101360000E944C0A88F09F5798F0B92F9927B751DF
:10137000B0F0E1F0660F771F881F991F1AF0BA9539
:10138000C9F714C0B13091F00E94660AB1E0089527
:101390000C94660A672F782F8827B85F39F0B93F19
:1013A000CCF3869577956795B395D9F73EF49095EC
:1013B0008095709561957F4F8F4F9F4F0895E8946A
:1013C00009C097FB3EF490958095709561957F4F8D
:1013D0008F4F9F4F9923A9F0F92F96E9BB2793953B
:1013E000F695879577956795B795F111F8CFFAF44B
:1013F000BB0F11F460FF1BC06F5F7F4F8F4F9F4F7C
:1014000016C0882311F096E911C0772321F09EE8D9
:10141000872F762F05C0662371F096E8862F70E03F
:1014200060E02AF09A95660F771F881FDAF7880F19
:101430009695879597F9089597F99F6780E870E0EA
:1014400060E008959FEF80EC089500240A9416163A
:10145000170618060906089500240A9412161306A2
:10146000140605060895092E0394000C11F4882330
:1014700052F0BB0F40F4BF2B11F460FF04C06F5F4C
:101480007F4F8F4F9F4F089557FD9058440F551F22
:1014900059F05F3F71F04795880F97FB991F61F0F6
:1014A0009F3F79F087950895121613061406551F6D
:1014B000F2CF4695F1DF08C0161617061806991FD9
:1014C000F1CF86957105610508940895E894BB27CE
:1014D00066277727CB0197F90895991B79E004C017
:1014E000991F961708F0961B881F7A95C9F7809563
:1014F0000895EE0FFF1F0590F491E02D099481E00F
:0C15000090E0F8940C94840AF894FFCF5B
:10150C00E80300000000EE02570285023B03B6021E
:10151C009402A80272696768742073696465000D8F
:02152C000A00B3
:00000001FF
